{
  "contractName": "Counter",
  "abi": [
    {
      "inputs": [],
      "name": "counter",
      "outputs": [
        {
          "internalType": "uint256",
          "name": "",
          "type": "uint256"
        }
      ],
      "stateMutability": "view",
      "type": "function",
      "constant": true
    },
    {
      "inputs": [],
      "name": "increment",
      "outputs": [
        {
          "internalType": "uint256",
          "name": "",
          "type": "uint256"
        }
      ],
      "stateMutability": "nonpayable",
      "type": "function"
    },
    {
      "inputs": [],
      "name": "decrement",
      "outputs": [
        {
          "internalType": "uint256",
          "name": "",
          "type": "uint256"
        }
      ],
      "stateMutability": "nonpayable",
      "type": "function"
    }
  ],
  "bytecode": "0x6080604052601760005534801561001557600080fd5b50610207806100256000396000f3fe608060405234801561001057600080fd5b50600436106100415760003560e01c80632baeceb71461004657806361bc221a14610064578063d09de08a14610082575b600080fd5b61004e6100a0565b60405161005b91906100f3565b60405180910390f35b61006c6100bf565b60405161007991906100f3565b60405180910390f35b61008a6100c5565b60405161009791906100f3565b60405180910390f35b600060016000546100b19190610164565b600081905550600054905090565b60005481565b600060016000546100d6919061010e565b600081905550600054905090565b6100ed81610198565b82525050565b600060208201905061010860008301846100e4565b92915050565b600061011982610198565b915061012483610198565b9250827fffffffffffffffffffffffffffffffffffffffffffffffffffffffffffffffff03821115610159576101586101a2565b5b828201905092915050565b600061016f82610198565b915061017a83610198565b92508282101561018d5761018c6101a2565b5b828203905092915050565b6000819050919050565b7f4e487b7100000000000000000000000000000000000000000000000000000000600052601160045260246000fdfea26469706673582212201290d7827b5a9985025cda1f814d7ae35a0875f9fc46804f98cf07caac01eebf64736f6c63430008000033",
  "immutableReferences": {},
  "source": "pragma solidity ^0.8.0;\n\ncontract Counter {\n    uint256 public counter = 23;\n\n    function increment() public returns (uint256){\n        counter = counter + 1;\n        return counter;\n    }\n\n    function decrement() public returns (uint256){\n        counter = counter - 1;\n        return counter;\n    }\n}",
  "sourcePath": "/home/andres/Desktop/Solidity/proyecto-dapp-counter/counter-sc/contracts/Counter.sol",
  "compiler": {
    "name": "solc",
    "version": "0.8.0+commit.c7dfd78e.Emscripten.clang"
  },
  "schemaVersion": "3.4.3",
  "updatedAt": "2021-09-21T00:42:48.366Z",
  "networkType": "ethereum",
  "devdoc": {
    "kind": "dev",
    "methods": {},
    "version": 1
  },
  "userdoc": {
    "kind": "user",
    "methods": {},
    "version": 1
  }
}